:400000000080002011000000210F0000210F000008B5044B1A6803F53F5302331A6000F087FF00BFFA46004010B5054C237833B9044B13B10448AFF300800123237010BD91
:400040009082FF1F0000000010230000084B10B51BB108490848AFF300800848036803B910BD074B002BFBD0BDE81040184700BF000000009482FF1F10230000C880FF1F0A
:400080000000000010B50446013001F041F8064801F03EF804F1110001F03AF8034801F037F8002010BD00BF282300001423000008B503281BD8DFE800F002080E1400F0F1
:4000C00093FF012815D0002008BD00F09BFF012811D0002008BD00F09DFF01280DD0002008BD00F09FFF012809D0002008BD002008BD012008BD012008BD012008BD01205E
:4001000008BD00BF70B506460D46002001F0A2FE002001F0ABFE0446012001F0A7FE803C347080382870002070BD00BF38B504460D46032824D8DFE800F00209101E084660
:4001400000F078FF104B1D55002038BD084600F07DFF0D4B1D55002038BD084600F082FF094B1D55002038BD29462046FFF7DEFF0134E4B200E00024022CF5D9002038BD7B
:400180006FF0130038BD00BFAC82FF1F38B50024254609E00021094B19552046FFF7C6FF00B105460134E4B2022CF3D901F088F801F044F800F0F2FF284638BDAC82FF1F75
:4001C00010B5032838D8DFE800F002101E321C4B1B5C012B01D1002300E00123184A1354184600F027FF002010BD154B1B5C012B01D1002300E00123114A1354184600F0AD
:4002000025FF002010BD0E4B1B5C012B01D1002300E001230A4A1354184600F023FF002010BD2046FFF7CCFF0134E4B200E00024022CF6D9002010BD6FF0130010BD00BFC2
:40024000AC82FF1F30B4054B1C682C3405460FCD0FC42B68236030BC704700BFB082FF1F2DE9F04383B081460D4616469846BDF82870824201DA91460646A84502DA2B463F
:4002800045469846114B1B6893F8582012F0020F17D05C6D00974346324629464846A04778B910E0094B1B681B683A46294620469847013424B200E04C46A642F2DA01359E
:4002C0002DB2A845F8DA03B0BDE8F083B082FF1F024B1B68A3F84200704700BFB082FF1F024B1B68A3F84400704700BFB082FF1F2DE9F04F87B00446049111460193BDF852
:4003000040300293119FA0F1B0034C2B37D8DFE803F033363636363136363636363636363636363636362F36363636363636363636363636363636362736363636362B36F9
:400340003636363636362D3636363636363636363636363636363636353636363636290099240CE081240AE09A2408E0842406E08E2404E0E62402E0F82400E09424A2B214
:400380007B899A42C0F04C81B889824200F248818AB20092B7F9062090B20590002800F03F814FEAD00A10F0070F01D00AF1010A386910B1E51A405D05909B48006890F867
:4003C000605015F0020F00F08C80C56DB7F90830009A1A44531E059E04983218013A1BB212B2A84780463B79002B36D17B89E41AB7F9083004FB03F303FB0AF3002200923A
:4004000025E03A6803F1010BD65C00240CE016F0010F02D00198C04701E00298C0477608013DADB20134A4B2072C01D8002DEED109F101091FFA89F95B4602E0059D4FF028
:400440000009D145DDD3009A013292B20092B7F9082000999142F1DBE2E0012B40F0E0807B89E41AB7F9083004FB03F3B7F9062003FB02F30026DDF814B0019DDDF808900A
:400480002AE03A6803F1010AD35CE8B25FFA89F2C3F5807101FB02F203FB002005F47F4E09F47F4202FB01F20EFB03231B12C0F3072023F0FF03184380B2C0470134A4B25F
:4004C000534600E000245C45DBD3B7F90620CBEB020213440136B6B2B7F908209642F1DB9EE0397900294BD1E31AB7F9082003FB02F303FB0AF3002203923BE0BDF81060DF
:40050000059D4FF000092BE03A6803F1010B12F8038000241BE018F0010F08D0424B1B681B68019ABDF9001030B2984707E03E4B1B681B68029ABDF9001030B298474FEA01
:4005400058080136B6B2013DADB20134A4B2072C01D8002DDFD109F101091FFA89F95B46D145D1D3009A013292B20092039A013292B20392B7F9082003999142BEDB4FE016
:4005800001294DD1E41AB7F9083004FB03F303FB02F34FF00008DDF814B0019EDDF808903AE0BDF81050002427E03A6803F1010AD35CF0B25FFA89F2C3F5807101FB02F200
:4005C00003FB002206F47F4E09F47F4000FB01F10EFB03131B12C2F3072223F0FF031A43114B1B681B6892B2BDF9001028B298470135ADB20134A4B253465C45D5D3B7F9F8
:400600000620CBEB02021344009A013292B2009208F101081FFA88F8B7F908209045C0DB07B0BDE8F08F00BFB082FF1F10B582B0054C24682C340194BDF810400094FFF7BB
:4006400057FE02B010BD00BFB082FF1F2DE9F04383B080460F461546064635E0013583B21C4A1468E28E93422ED3218F8B422BD80A2802D1B4F9046026E0E36B1BB1821A5F
:4006800013F8029001E094F8329006EB0902B4F90430013B9A4207DDB4F9342094F9413013441F443FB24646B4F84230B4F8442000923A463146FFF7B9FF064B1B6893F99A
:4006C00040304B441E4436B228780028C6D103B0BDE8F083B082FF1F08B5002000F0F0FF08BD00BF684620F007018D4619B572B6EFF311841E4B1B68DBB20F2B10D9103B0A
:4007000023F0030202F1604202F564421168DB0003F01803E0229A400A4022FA03F306E00F2B03D1134B1B681B0E00E0002383F31188114A136801331360012B01D101F059
:40074000E1FB62B6FFF7C8FF72B684F3118801F0B1F9094A1368013B13601BB901F0DBFB01F09FFB62B6BDE819408546704700BF04ED00E020ED00E01883FF1F08B562B6AF
:4007800045F6BF52074B1A60043B1A6842F002021A601A6842F005021A60002001F086FA00BEFDE714E000E008B500F097FCFFF7EDFC01F0DFFA01221146002000F002FE01
:4007C000032000F08BFD012000F088FD01F0B4FA08BD00BF00BFFDE708B500F09BF90122024B1988024800F0B9F908BD182801001C28010000B583B000230193032001F0C6
:4008000085F801A9032000F0E1FF019800F0B0FF019A034B1988034800F0CEF9EEE700BFF4270100F827010030B5ABB001210220FFF77CFC00F0E0FB0020FFF739FC0128D9
:4008400016D12AAD012305F8A83D0C4C0FCCCDF80100CDF80510CDF80920CDF80D302388ADF8113000238DF811302846FFF70AFC002001F0D3F92BB030BD00BFE0270100A1
:40088000684620F007018D4619B572B6EFF311841E4B1B68DBB20F2B10D9103B23F0030202F1604202F564421168DB0003F01803E0229A400A4022FA03F306E00F2B03D173
:4008C000134B1B681B0E00E0002383F31188114A136801331360012B01D101F013FB62B6FFF7A2FF72B684F3118801F0E3F8094A1368013B13601BB901F00DFB01F0D1FAA9
:4009000062B6BDE819408546704700BF04ED00E020ED00E01883FF1F70B586B0264B1B88ADF81430ADF80C305BB2002B21DD5B00DCB2224B1C7000265E6002255D709B68BD
:400940009968032000F062FF8DF810508DF81160BDF81020ADF80420194B1A805E609D70184B1C705E605D70174A13782B4313701FE00024114B1C705C6002255D709B689B
:400980009968032000F042FF8DF8105001238DF81130BDF81020ADF80820094B1A805C609D70084B1C705C605D70074A13782B43137006B070BD00BFCC80FF1FD880FF1FF3
:4009C000E480FF1FF080FF1F0883FF1F08B5074B5B78022B03D1054883685B689847044A137843F00403137008BD00BFD880FF1F0883FF1F144B9B681B68FBB100B583B0CF
:400A00006846984778B9BDF80020ADF804200E4B1A8000225A6002229A709B689968032000F0F4FE02E00322074B9A70074A137843F00103137003B05DF804FB034A13787C
:400A400043F0010313707047CC80FF1F0883FF1F08B5074B9B78022B03D1054883685B689847044A137843F00803137008BD00BFE480FF1F0883FF1F08B5074B5B78022B9D
:400A800003D1054883685B689847044A13786FF30413137008BD00BFF080FF1F0883FF1F10B582B0044600238DF8073002A901F8023D0DF10700FFF725FB024698B99DF9AB
:400AC0000710642303FB01F3002B00DA7F33DB1123709DF90610642303FB01F3002B00DA7F33DB116370104602B010BD08B541780078FFF71BFB002008BD00BF10B5044613
:400B000000F05AFB00F09AFB207800F077FB002010BD00BF104B5B680A3313F1011F01D80D4A53600C4B1B690A3313F1011F01D8094A1361084BDB690A3313F1011F01D836
:400B4000054AD361044B9B6A0A3313F1011F01D8014A9362704700BFCC80FF1FF8B505460E461746002411E005EBC4039B880F4A1168B1FBF3F203FB12132BB955F8343091
:400B800098470020FFF71CFB0134A4B2B442EBD3064A13681F447B090549A1FB0313DB09044901FB13771760F8BD00BFBC82FF1FC55A7C0AA0860100F8B505460E461746C5
:400BC000002409E005EBC4035B683B4202D055F8343098470134A4B2B442F3D3F8BD00BF10B59CB00A2203A9007801F040FB4EF6317400943C23642226210C20FFF730FB51
:400C00000B48FFF71FFB2046FFF76AFB4FF47840FFF75EFB074A05210120FFF717FD03AA28210F20FFF712FD00201CB010BD00BFCC23000054280100FEE700BFF0B400222C
:400C4000174611E050F82760F3B226F0FF0608E001EB420511F812406D78A5550132013BDBB2002BF4D10137242FEBD9F0BC704708B50A46002101F007FB08BD38B50024AD
:400C80002A4B1C80582202331A70022202331A80182327490B700C200231088002310B70192502310D8002310B70224B1A7008224FF040231A70032103F5007319701E4BC2
:400CC0001B78DBB21D490B701D4B1A8041F25122023B1A800CE01B4B1B7803F0010343EA440404F003044FF4F07001F091F9013D0DB1032CEFD115B90320FFF79DFF124B3F
:400D00004FF480721A8007221A7000220F490A704820023108701A700222033B1A700C4A137843F00F03137038BD00BF80400040864000400043004008010049A146004055
:400D400022420040254200400440004006400040A2430040F8B5184B1B78DBB2174E3478E4B2174F3D78EDB203F00701154A11701B090132137044F00303337045F003039B
:400D80003B700322104B1A704023104A137002321370302302F21D2213702021033211702D3213700A2001F033F83D7034704422074B1A70F8BD00BFCF010049F8460040C1
:400DC000F94600406E5800400D510040095900407658004008B501F04CFA08BD38B572B600240CE0394D630019194A0011462A44084691882858FFF73BFF0134E4B2062C04
:400E0000F0D900240BE03149A3001819420088180622016BC06AFFF7DDFF0134E4B2002CF1D02B494FF09040FFF708FF04212948FFF71EFF042228492848FFF7CBFF284A00
:400E4000137843F0020313701032137843F002031370244C237843F040032370A2F58632513A137843F01003137008221E491F48FFF7B0FF0A221E491E48FFF7ABFF082202
:400E80001D491E48FFF7A6FF08221D491D48FFF7A1FF0A221C491D48FFF79CFF1C4A137843F0080313701B4D61232B70FFF7E6FE81232B700122184B1A70FFF74BFF0E22E7
:400EC00021461648FFF786FF38BD00BF642801009400004800760040600B00480876004003500140A0430040300B004802510040380B0048C0510040440B0048125100408B
:400F00004C0B004822510040540B004830510040224300400048004004000840B043004008B501F061F903680C2B00D1FEE7FEE708B5104E104D16E029686B68AC680022FE
:400F400004E051F8040B43F8040B0432A242F8D1E868002203E0002143F8041B04328242F9D11035013E002EE6D101F043F9FFF705FCFEE701000000242B010008B5114A99
:400F8000114B1A60114A136843F40073136000230AE0032B03D80E4A52F8231000E00D490D4A42F8231001332F2BF2D90B4B1A780B4B1A70084A0B4B1A60FFF70FFF00F04C
:400FC0000BFF08BD0004FA050CED00E014ED00E000000000210F00000080FF1FBC760040C080FF1F08ED00E0024B1878C0F3C000704700BF015100400222014B1A607047F9
:4010000080E200E0024B1878C0F30010704700BF01510040024B1878C0F34010704700BF01510040024B1878C0F38000704700BF31510040044A137803F0BF03800100F097
:40104000400018431070704700510040044A137803F0FE0300F0010018431070704700BF20510040044A137803F07F03C001C0B218431070704700BF005100407222084B03
:401080001A702022A3F580731A7006229C331A70472210331A7002224E331A70704700BF8A65004010B500F0BBFF04460A4A137843F020031370A2F58072137843F01003F9
:4010C0001370FA32137843F01003137000F076FE204600F0A9FF10BD9A65004008B5054B1B7823B9FFF7CAFF0122024B1A70FFF7D9FF08BDC082FF1F034B1B7813F0040F60
:40110000FAD1024B18707047646500404465004038B5074B1B782BB938BDFFF7EDFF0134A4B201E005460024285D0028F5D138BDC082FF1F024A137843F08003137070476F
:401140007E640040014B1870704700BF0F640040014B1870704700BF4F640040014B1870704700BF2F64004008B50B4A137803F0C00343F0090313702132137843F00103CC
:401180001370FF20FFF7DEFFFF20FFF7E1FF0020FFF7E4FF08BD00BF7E64004008B5054B1B7823B9FFF7E0FF0122024B1A70FFF7C1FF08BDC282FF1F054A137843F00203EC
:4011C00013701032137843F002031370704700BFA2430040024A137843F08003137070477C640040014B1870704700BF0D640040014B1870704700BF4D640040014B187058
:40120000704700BF2D64004008B50B4A137803F0C00343F0090313702132137843F001031370FF20FFF7DEFFFF20FFF7E1FF0020FFF7E4FF08BD00BF7C64004008B5054B29
:401240001B7823B9FFF7E0FF0122024B1A70FFF7C1FF08BDC382FF1F024A137843F080031370704778640040014B1870704700BF0E640040014B1870704700BF4E64004037
:40128000014B1870704700BF2E64004008B50B4A137803F0C00343F0090313702632137843F001031370FF20FFF7DEFFFF20FFF7E1FF0020FFF7E4FF08BD00BF78640040E0
:4012C00008B5054B1B7823B9FFF7E0FF0122024B1A70FFF7C1FF08BDC482FF1F38B5EFF3108572B603284ED82D4B53F82030002B4BD02B4A013B42F820302A4B53F8203043
:40130000032B07D10222274B43F820200022264B43F8202000F03EFC244B1B68002B36D1234B1C6800F014FCB0F1FF3F31D0214B53F82020204B1B689A422CD9B4F1FF3FBF
:4013400003D00221174A42F824101C4A52F820201343194A13600022124B43F8202000F0B3FB174B53F820304BB10024144B43F8204040F0004000F0D7FD20460CE000F067
:40138000D3FD002008E0032006E0042004E0002002E0002000E0002085F3108838BD00BF3881FF1FDC81FF1FE882FF1F1883FF1FC881FF1F142A01000083FF1FFC2901005E
:4013C000C882FF1FF8B5EFF3108472B628BB00EB4005AB00184DEB5803EB4306B500174E75598D421BD34AB103EB43039E00134B1E44B3689A4214D3954214D3A9B1030171
:401400000F4DEB589BB90301EE180127EF507260013900F087F800200AE0032008E0082006E0082004E0082002E0082000E0072084F31088F8BD00BFBC290100D029010002
:401440004083FF1F18B108B5C368984708BD704708B508B1406800E00020032816D80C4B53F8203093B10A4A013B42F82030094B53F82030032B07D10222064B43F8202013
:401480000022054B43F8202000F084FB08BD00BF3881FF1FDC81FF1FE882FF1F18B1034640689B6801E00023184603281DD80F4A52F82020CAB10E4A52F82010032914D0F3
:4014C00010B50C4C54F820201A4344F820200A4A52F82020134207D0012905D10222044B43F8202000F056FB10BD7047DC290100DC81FF1FE882FF1FD882FF1F80B108B53E
:401500000378012B06D013B1032B06D008BDFFF79FFF08BDFFF7C2FF08BDFFF793FF08BD704700BF30B400EB40029300214AD258214B03EBC2035C68B4F1FF3F04D11E4BCC
:4015400003EBC20250602DE01C4B03EB04139B6899420AD2184D05EBC2025060174A02EB04125B1A93601DE01C46144B03EB04139A68891ADB68B3F1FF3F05D00F4A02EB99
:40158000031292689142EFD2B3F1FF3F05D00B4A02EB031295686D1A9560084A02EB0414E0601C46054B03EB00108160C46030BC704700BFBC2901000081FF1F4083FF1FED
:4015C00038B5394A02EBC0035C6852F83030013342F8303000EB40018A0034498A58934203D90022304B43F83020B4F1FF3F59D02F4B03EB04139B68002B4ED1214600E082
:4016000019462B4B03EB0113DB68B3F1FF3F05D0274A02EB03129268002AF1D0244A02EB01114FF0FF32CA601F4A02EBC0004360B3F1FF3F07D01E4A02EB03139A68013A60
:401640009A6000E02C4604EB44029300194A13441B7A7BB904EB44029300164A13445A68154B53F8223003EB83039A0013481044FFF744FF0E4B03EB0413DD68596821B169
:4016800001392046FFF74EFF03E024010022084B1A51B5F1FF3FD5D138BD054A02EB0414013BA36038BD00BF0081FF1FD02901004083FF1FBC290100CC290100A829010071
:4016C00038B5EFF3108572B6002838D1FFF778FF204B1B68002B34D11F4B1C6800F038FAB0F1FF3F2FD01D4B53F820201C4B1B689A422AD9B4F1FF3F03D00221194A42F882
:401700002410194A52F820201343154A13600022144B43F8202000F0D7F9144B53F820304BB10024114B43F8204040F0004000F0FBFB20460AE000F0F7FB002006E00320E2
:4017400004E0002002E0002000E0002085F3108838BD00BF1883FF1FC881FF1F142A01000083FF1FDC81FF1FFC290100C882FF1FEFF3108372B6114A1168114A126882B915
:40178000B1F1FF3F0FD00F4A52F821206AB110B40D4C54F8212022EA000044F82100002007E0022002E0022000E0012083F31088704783F3108810BC704700BFC881FF1FAE
:4017C0001883FF1FDC290100E882FF1F03280FD80B4B53F820306BB10A4B53F82030032B0AD059B1084B53F820300B60002070470320704701207047072070470E207047DC
:40180000DC290100DC81FF1FE882FF1F38B5EFF3108472B6032853D8324B53F82030002B50D0314B53F82030032B4DD02F4D55F820200A4345F820202D4A52F820201142D2
:4018400044D0012B44D10222274B43F8202000F0A1F9284B1B68002B3CD1274B1D6800F077F9B0F1FF3F37D0244B53F82020244B1B689A4232D9B5F1FF3F03D002211A4AFC
:4018800042F825101F4A52F8202013431C4A13600022154B43F8202000F016F91A4B53F820304BB10025184B43F8205040F0004000F03AFB284612E000F036FB00200EE048
:4018C00003200CE001200AE0072008E0002006E0002004E0002002E0002000E0002084F3108838BDDC290100DC81FF1FE882FF1FD882FF1F1883FF1FC881FF1F142A0100AF
:401900000083FF1FFC290100C882FF1F38B5EFF3108472B6364B1D68364B1B68002B5DD1B5F1FF3F5CD0344B53F82530002B59D0324B53F82530034256D1314B43F82500A2
:401940000122304B43F825202F4B53F825002F490B6823EA00030B602D4B43F825202D4B53F82520224B1A6000F0F2F8B0F1FF3F06D0294B53F82020244B1B689A420DD8D1
:401980001B4B1868B0F1FF3F03D000221D4B43F8202040F0004000F0C7FA1AE00021194A42F82010184A52F820201343174A136000F08AF8164B53F8203043B10022144B88
:4019C00043F8202040F0004000F0AEFA01E000F0ABFA00200A4B43F8250006E0022004E0022002E0012000E0002084F3108838BDC881FF1F1883FF1FDC290100E882FF1F56
:401A0000D882FF1FDC81FF1FFC2901000083FF1FC882FF1FCC81FF1F142A010008B500F053F8084B53F8203043B10022054B43F8202040F00040044B186008BD024B186052
:401A400008BD00BFC882FF1F1C83FF1F10B500F07FF8124B1B68B0F1FF3F1AD0104A52F82010104A1268914213D9B3F1FF3F03D002240D4941F8234000210B4B43F82010D2
:401A80000A4B53F820301A43064B1A60FFF7C6FF10BD43F00043064A136010BDC881FF1F142A01000083FF1FDC81FF1FFC2901001C83FF1F034B1B6813B10022014B1A605E
:401AC000704700BF0C83FF1FF0B4184B19880B0A174AD356B3F1FF3F01D1535601E008335BB2144D55F82320134850F82200134E56F8224045F82340114D2F6846F82270CA
:401B00002A60B4F1FF3F09D10E4A42F82340012202FA03F321EA0301044B19800A4B19680A4A42F820101860F0BC7047FC82FF1F9C2801008881FF1F2083FF1F1881FF1FEE
:401B4000F882FF1F4881FF1FC881FF1FCC81FF1F0C4B1A88130A0C49CB56B3F1FF3F01D18B5601E008335BB2B3F1FF3F06D0074A52F82320064B53F8220070474FF0FF3051
:401B8000704700BFFC82FF1F9C2801008881FF1F2083FF1F30B4144B53F82020134C2368134951F823502560124C44F823004FF0FF3441F82340104951F82210A1420AD1B4
:401BC0000E4951F820400E480188214301800D4941F8223002E0064840F82130064941F8223030BC704700BF2881FF1FF882FF1F1881FF1F2083FF1F4881FF1F142A01004E
:401C0000FC82FF1F8881FF1F0022014B1A60FEE71483FF1F08B5FFF7F7FF00BF08B572B6FFF7F8FF10B150F8210070474FF0FF30704700BF0122014B1A60FEE71483FF1FDD
:401C400070B50546124B53F8306000241CE0104B03EBC50321465868FFF7E4FF0D4A52F82030013B42F820300B4B53F82030032B07D10222084B43F820200022074B43F83C
:401C80002020FFF787FF0134B442E0D370BD00BF9C2901003881FF1FDC81FF1FE882FF1F18B908B5FFF7CCFF08BD7047194B1A4ADA621A4A9A631A4ADA63EFF3108272B691
:401CC000184B1B6813BB10B5044600F053F8164B1C600122134B1A602046FFF7E1FFFFF737FFB0F1FF3F0ED0104B53F82030104A11680B43136000220E4B43F82020FFF773
:401D0000E3FE00F011F962B6FFF794FF82F31088072070470080FF1FE91E0000AD1E0000E50600001483FF1F5083FF1FFC2901000083FF1FDC81FF1F08B5EFF3108272B6A0
:401D4000094B1968094B1B6833B94FF0FF30084B43F82100002000E0022010B9084600F03CF982F3108808BDC881FF1F1883FF1F0881FF1F38B50D4B1D68EFF3108472B64F
:401D800000F082F80A4A136843F07F431360094B6B640221012000F045F8074A136843F00203136084F3108838BD00BF08ED00E020ED00E08108000000E100E0054A1378CE
:401DC00043F0080313701032137843F008031370704700BFA24300400B4A7F2313708021517007E0DA0002F1804202F5F042013BDBB21370002BF5D1DB0003F1804303F5B7
:401E0000F04300221A7070471082FF1F01BE704708B5034B1B7A00FB03F000F0F9F808BD1882FF1F38B504460D46072902D90020FFF7ECFF1F2C02D90020FFF7E7FF04F04E
:401E40001F0000F1604000F564406D01EDB2057038BD00BF044B1B7803F0FF020BB90028F8D01046704700BF68650040C0F10100034B33F91030034A1088181A00B2704794
:401E8000048AFF1F0C8AFF1F18484FF47F0102680A43026016486FF07F4102680A400260704714484FF080510160704772B611484FF000610160FFF7C9FD0F48006800F0CB
:401EC000D3F858B10C4800684FF080730B4A0C490FB40FB46FF00600004700BF6FF0060062B6004762B600DF08B0704720ED00E01CED00E004ED00E01C83FF1F291F0000AF
:401F0000E51E0000EFF30880054908600548006880F3088870470248006880F3088870472882FF1F0482FF1F411C8900154A11440968154A136899421AD0F0B444464D46CC
:401F400056465F46F0B400B5104C9B002344EFF308851D60116089002144096881F3088802BC8E46F0BCA046A946B246BB46F0BC002806DB00B500F06BF802BC8E46FFF758
:401F8000D3BF7047442A01000483FF1F0882FF1FF0B444464D4656465F46F0B400B5EFF3038308B48000174901440968164A0244EFF30883136088471448804704BC4FF090
:401FC0008070024382F3038801BC8646F0BCA046A946B246BB46F0BC704780000A4901440A6882F3088804BC4FF08070024382F3038808BC9E46F0BCA046A946B246BB4661
:40200000F0BC7047242A01003083FF1F312000000230800803D000BF01380046FCD17047EFF3108072B6704780F31088704700BF08B572B6014B1868FFF7CFFFC881FF1FCF
:4020400008B5024B1868FFF7A3FF08BDC881FF1F08B562B6FFF7F4FF72B600F041F8014B186808BD1C83FF1F00280BDA20F000400130054B53F82000044B1B68181A18BF91
:402080000120704701207047442A01000483FF1F054B53F82020054B53F820309A4201D101207047002070473881FF1FEC29010008B5FFF709FD084B53F8203043B100228F
:4020C000054B43F8202040F00040044B186008BD024B186008BD00BFC882FF1F1C83FF1F38B5364B1C680022354B1A60354A52F82430013342F82430334B53F8245020461B
:40210000FFF7C6FF012801D0A54204D103222F4B43F8242003E002222C4B43F824202C4B53F824102B4A136823EA010313602A4B53F82440214B1C60B5F1FF3F0FD0234B6C
:4021400053F82530032B07D10222204B43F825200022224B43F825202846FFF71BFDFFF7F7FCB0F1FF3F0BD1B4F1FF3F03D00022164B43F8242044F00044194B1C6038BD76
:40218000184B53F82020134B1B689A4208D800220E4B43F8242044F00044114B1C6038BD00210A4A42F82010094A52F820201343084A1360FFF77CFF38BD00BFC881FF1FF2
:4021C0000C83FF1F3881FF1F0881FF1FDC81FF1FFC2901000083FF1FCC81FF1FE882FF1F1C83FF1F142A0100014B1868704700BF8C82FF1F0E4B70B51E460E4C0025E41AB6
:40220000A410A54204D056F8253098470135F8E710F076FC084B094C1E46E41AA4100025A54204D056F8253098470135F8E770BD0C2B01000C2B01000C2B0100142B0100DC
:40224000931E222B10B50C4602D90020087010BD0A2A06D1002804DA2D230B704042012100E00021214400F017F8204610BDFFF7E7BF10B5431E0A44914204D011F8014BE5
:4022800003F8014FF8E710BD03460244934202D003F8011BFAE77047F0B58BB003460F466D461A4C04F1200E2E4620686168083403C674453546F7D1217920683171911E4F
:4022C000222930604FF0000001D938701CE07D1EB3FBF2F402FB14330AAE334413F8283C411C05F8013F23460CB10846F0E77C543A18C11A8B4206DAF95C1478FC5402F87B
:4023000001190133F5E738460BB0F0BDDA2A0100000000000A00000055415254207374617274656400000000203A20002C632C632C632C63139D139D139D139D7DEF7DEFDD
:402340007DEF7DEF2C632C632C632C63FFFFFFFF4D6B4D6B1CE71CE7139D139D2C632C632C632C63139D139D139D139D7DEF7DEF7DEF7DEF2C632C632C632C63FFFFFFFF93
:402380004D6B4D6B1CE71CE7139D139D2C632C632C632C63FFFFFFFF4D6B4D6B1CE71CE7139D139DE02300000000180028000000FF00000000000000E09B00000000160066
:4023C00024000000FF00000000000000E007010000000A0010000000FF000000000000000000000000000000000000000000000000000000000000000000000000000000B9
:40240000000000000000000000000000000000000000000000000000000000000000000000000000000000000000000000000000000000000000000000000000000000009C
:40244000000000000000000000000000000000000000000000000000000000000000000000000000000000000000000000000000000000000000000000007E00C0FF03E03C
:40248000810770000E38001C1C00388CC3318EC37186C361060060060060660066460062CE00738C81311CFF38387E1C70000EE08107C0FF03007E00000000000000000078
:4024C00000000000000000000000000000000000000000000000000000000000000000000000000000000000000000000000000000007E00C0FF03E0FF07F0FF0FF8FF1FA2
:40250000FCFF3F7C3C3E7E3C7E7E3C7EFEFF7FFEFF7F9EFF79BEFF7D3EFF7C7C7E3EFC003FF8811FF0FF0FE0FF07C0FF03007E0000000000000000000000000000000000CB
:402540000000000000000000000000000000000000F0000FFCC33FFCE73FFEE77FFEFF7FFFFFFFFFFFFFFFFFFFFFFFFFFFFFFFFFFFFFFFFFFFFEFF7FFEFF7FFEFF7FFCFF02
:402580003FFCFF3FF8FF1FF8FF1FF0FF0FF0FF0FE0FF07C0FF03C0FF0380FF0100FF00007E00003C00001800000000000000000000000000000000000000000000000000BF
:4025C000000000000000000000001000001000003800007C00007E0000FE0000FF0180FF01C0FF03E0FF07F0FF0FF8FF1FFCFF3FFEFF7FFFFFFFFEFF7FFCFF3FF8FF1FF0E0
:40260000FF0FE0FF07C0FF0380FF0300FF0100FE00007E00007C0000380000180000100000000000000000000000000000000000000000000000000000000000000000000A
:4026400000007E0000FF0080FF01C0FF03C0FF03C0FF03C0FF03C0FF0380FF0180FF01F8FF1FFCFF3FFEFF7FFFFFFFFFFFFFFFFFFFFFFFFFFFFFFFFEDB7FFC993FF83C1F57
:40268000003C00003C00003C00003C00003C00007E00007E00007E000000000000000000000000000000000000000000000000000000000000000000000008000018000054
:4026C0001C00003E00007F0000FF0080FF01C0FF01E0FF03F0FF07F8FF1FFCFF3FFCFF3FFEFF7FFFFFFFFFFFFFFFFFFFFFFFFFFFFFFFFEDB7FFC993F783C1E003C00003C7D
:4027000000003C00003C00007E00007E00007E00000000000000000000000000000000000000000000000000000000000000000000000000000000000000000000000000A7
:402740000000000000000000000000000000000000000000000000000000000000000000000000000000000000000000000000000000000000000000000000000000000059
:402780000000000000000000000000000000000000000000000000000000000000000000000000000000000000000000000000000000000000000000000000000000000019
:4027C00000000000000000000000000000000000000000000000000000000000000000000000000000000000000000000000000000000000000000000000000000000000D9
:402800000000000000000000000000000000000000000000000000000000000000000000000000000000000000000000000000000000000000000000000000000000000098
:402840000000000000000000000000000000000000000000000000000000000000000000000000000000000000000000000000000000000000000000000000000000000058
:402880000000000000000000000000000000000000000000000000000000000000000000000000000000000000000000000000000000000000000000000000000000000018
:4028C00000000000000000000000000000000000000000000000000000000000000000000000000000000000000000000000000000000000000000000000000000000000D8
:40290000000000000000000000000000000000000000001800803F00F03F00F83F00783E00007700807700807300C0F300C0E1C0FF20F0FF00F8FF007CF0011EC0030E804E
:40294000030F80070700070700070700070700070700070F80070E80031EC0037CF001F8FF00F07F00C01F00000000000000000000000000000000000000000000000000BE
:40298000000000000000000000007F00C0FF01E0FF03F0C10778000F38000E3C001E1C001C1C001C1C001C1C001C1C001C3C001E38000E78000FF0C107E0FF03C0FF01007E
:4029C0007F00001C00001C00001C00E0FF03E0FF03E0FF03001C00001C00001C00001C000000000000000000000000000000000000000000000000000000000000000000EE
:402A00000000000000000000000000000000000000000000000000000000000000000000000000000000000000000000000000000000000000000000000000000000000096
:402A400000000000000000000000000000000000000000000000000000000000000000000000000000000000000000000000000000000000000000000000002000003800FE
:402A8000003E00803F00E03F00FC3700FF31007F30001F3000073000033000033000033000033000033000033000033000033000033000033000033000833F00E33F00E36A
:402AC0003F00F31F00F31F00F30F00E303F80300FE0300FE0100FF0100FF0000FF00003E000000000000000000000000000000000000000000000000000000000000000054
:402B000000380000380030380C78FE1CF0FF1FE0FF0FE0C307E0000FF0000F7E007E7E007E7E007EF0000FE0000FE0C307E0FF07F0FF1F78FE1E30380C0038000038000093
:402B400000000000000000000000000000000000000000000000000000000000000000000000000000000000000000000000000000000000000000000000000200000E0045
:402B8000003E0000FE0000FE0300FE0F00FE1F00FE7F00FEFF01FEFF07FEFF1FFEFF7FFEFF1FFEFF07FEFF01FE7F00FE1F00FE0F00FE0300FE00003E00000E000002000085
:402BC00000000000000000000000000000000000000000000000000000000000000000000000000000000000000000000000000000000000004000007000007C00007F002A
:402C0000C07F00F07F00F87F00FE7F80FF7FE0FF7FF8FF7FFEFF7FF8FF7FE0FF7F80FF7F00FE7F00F87F00F07F00C07F00007F00007C000070000040000000000000000085
:402C400000000000000000000000000000000000000000000000000000001000003800003800007C0000FE0000FF0180BB038038020038000038000038000038000038004A
:402C800000380000380000380000380000380000380000380000380000380000380000380000380000380000380080380280BB0300FF0100FE00007C000038000038000022
:402CC0001000000000000000000000000000000000C08307C08307C08307C08307C08307C08307C08307C08307C08307C08307C08307C08307C08307C08307C08307C0832B
:402D000007C08307C08307C08307C08307C08307000000000000000000000000C08307C08307C08307C08307000000000000000000000000000000000000000000000000F2
:402D400000000000000000000080FF07E0FF07F00F06F80F06F80F06F80F06F80F06F80F06F80F06F80F06F00F06F00F06E00F06C00F06000F06000C06000C06000C060068
:402D80000C06000C06000C06000C06000C06000C06000C06000C06000C06000C06000C06000C06000C06000C06000C06000C06000C060000000000000000000000000000E1
:402DC0000000FC0300FF0780FF07C00306E00100E00000E00000E00000E00300C00700803F0080FF0080FF01C0F103C0C007E0800FE0000FE0000EE0010EC0070EC00F0775
:402E0000807F0700FE0300F80300E00700800700000F00000E00000E00000E20000FE08107E0FF03E0FF01007F000000000000000000000000000000000000000000000011
:402E40000000000000000000000000000000000000000000000000FEFF7FFEFF7FFEFF7FFEFF7FFEFF7FFEFF7FFEFF7F0000000000000000000000000000000000000000EE
:402E800000000000000000000000000000000000000000000000000000000000000000000000000000000000000000001000003800003800007C0000FE0000FF0180BB03DA
:402EC00080380200380000380000380000380000380000380000380000380000380000380000380000380000380000380000380000380000380000380080380280BB030030
:402F0000FF0100FE00007C0000380000380000100000000000000080FF0380FF0380FF03000000000000000000001000003800003800007C0000FE0000FF0180BB03803821
:402F400002003800003800003800003800003800003800003800003800003800003800003800003800003800003800003800003800003800003800003800003800003800B7
:402F80000038000038000038000038000038000038000000000000000000000000000000000038000038000038000038000038000038000038000038000038000038000091
:402FC000380000380000380000380000380000380000380000380000380000380000380000380000380000380000380000380000380080380280BB0300FF0100FE00007CA7
:403000000000380000380000100000000000000000000000000000000000000000000000000000000000000000000000000000000000000000000000000000000000C00050
:40304000008001008003000007FCFF1FFCFF3FFCFF1F00000700800300800100C000000000000000000000000000000000000000000000000000000000000000000000000C
:403080000000000000000000000000000000000000000000000000000000000000000000000000000000000000000000000000000000000000000300800100C00100E000EB
:4030C00000F8FF3FFCFF3FF8FF3FE00000C0010080010000030000000000000000000000000000000000000000000000000000000000000000000000000000000000000005
:403100000000000000000000000000000000000000000000000000000000000000000000001C00001C00001C00001C00001C00001C00001C00001C00001C00001C00001C5B
:4031400000001C00001C00001C00001C00001C00001C00001C0000FCFF3FFCFF3FFCFF3F0000000000000000000000000000000000000000000000000000000000000000DD
:403180000000000000000000000000000000000000000000000000000000000000000000000000000000C300808101C08103E00007F8FF1FFCFF3FF8FF1FE00007C081038E
:4031C00080810100C300000000000000000000000000000000000000000000000000000000000000000000000000000000000000000000000000000000000000000000000A
:403200000000000000000000000000000800000800001C00001C00003E00003E00007E00007F0000FF0080FF0080FF01C0FF01C0FF03E0FF03E0FF07F0FF07F0FF0FF0FFA2
:403240000FF8FF1FF8FF1FFCFF3FFCFF3FFEFF7F00000000000000000000000000000000000000000000000000000000000000000000000000000000000000000000000023
:40328000000000FEFF7FFCFF3FFCFF3FF8FF1FF8FF1FF0FF0FF0FF0FF0FF07E0FF07E0FF03C0FF03C0FF0180FF0180FF0000FF00007F00007E00003E00003E00001C000023
:4032C0001C000008000008000000000000000000000000000000000000000000000000000000000000000000000000000000000000000000000000000000000000000000A2
:40330000000000000000000000000000000000000000000000000000000000000000000000000000000000000000000000000000000000000000000000000000000000008D
:40334000000000000000000000000000000000000000000000000000000000000000000000003C00003C00003C00003C00003C00003C00003C00003C00003C00003C0000F5
:403380003C00003C00003C00003C00003C00003C00003C00003C00003C00003C00003C00000000000000000000000000003C00003C00003C00003C00000000000000000089
:4033C00000000000000000000000000000000000000000E0830FE0830FE0830FE0830FE0830FE0830FC00107C00107C00107C00107C0010700000000000000000000000039
:40340000000000000000000000000000000000000000000000000000000000000000000000000000000000000000000000000000000000000000000000000000000000008C
:403440000000000000000000000000000000000000001C1C001C1C000E0E000E0E000E0E000E0E000707000707000707F8FF7FF8FF7FF8FF7F80830380830380C301C0C10F
:4034800001C0C101FEFF3FFEFF3FFEFF3FE0E000E0E000E0E00070700070700070700070700038380038380000000000000000000000000000000000000000000000000035
:4034C00000000000300000300000FC0100FF0F80FF0FC0370EE03300E03100E03100E03100E03100E03300C03700803F00003F00007E0000FC0000F00300F00700B00F004C
:40350000300F00301F00301E00301E00301E00301E10300FF0B00FF0FF07F0FF0300FF00003000003000000000000000000000000000000000000000000000000000000080
:4035400000F800E0FC03708E07380E0738070E1C070E0E070E07070E07078E030EC7019EC701FCE300F07000007000003800001C00000E0F00CE3F00E77880E3708073E058
:40358000C071E0E070E0E070E07070E038E0701CE0791CC03F0E000F070000000000000000000000000000000000000000000000000000000000000000007E0080FF00C0E1
:4035C000FF01C0E303E0C103E0C103E0C103E0C103E0E301C0F300C07B00C03F00C01F00F00F00F80FF03C1FF01E3EF01E3CF00F7C700FF8700FF0790FF0390FE03F1FC0FF
:403600001F1E800F3E801FFCE03FF8FF7FF07FFCC01F00000000000000000000000000000000000000000000000000003E00003E00003E00003E00003E00003E00001C0076
:40364000001C00001C00001C00001C0000000000000000000000000000000000000000000000000000000000000000000000000000000000000000000000000000000000DA
:40368000000000000000000000000000000000000000000000000000000000000000000000000000001C00001F00C01F00E00700F00100F800007C00003C00001E00001E2C
:4036C00000000F00000F00000F00800700800700800700800700800700800700800700800700800700800700800700000F00000F00000F00001E00001E00003C00007C00AF
:4037000000F80000F00100E00700C01F00001F00001C000000000000000000380000F80000F80300E00700800F00001F00003E00003C0000780000780000F00000F0000095
:40374000F00000E00100E00100E00100E00100E00100E00100E00100E00100E00100E00100E00100F00000F00000F000007800007800003C00003E00001F00800F00E007DF
:4037800000F80300F80000380000000000000000000000000000000000003C00003C00003C00003C0010180870180EF8811FF8C31FC0C30300000000420000FF0080E70187
:4037C000C0C303C0C303C0810300810000000000000000000000000000000000000000000000000000000000000000000000000000000000000000000000000000000000F8
:4038000000000000000000000000000000000000000000000000000000000000000000000000000000000000000038000038000038000038000038000038000038000038C8
:4038400000003800FCFF7FFCFF7FFCFF7F003800003800003800003800003800003800003800003800003800000000000000000000000000000000000000000000000000AA
:403880000000000000000000000000000000000000000000000000000000000000000000000000000000000000000000000000000000000000000000000000000000000008
:4038C0000000000000000000000000000000007E00007E00007E00007E00007E00007E00007800007800003800003C00001E0000060000000000000000000000000000004C
:4039000000000000000000000000000000000000000000000000000000000000000000000000000000000000000000000000F0FF0FF0FF0FF0FF0F0000000000000000008D
:403940000000000000000000000000000000000000000000000000000000000000000000000000000000000000000000000000000000000000000000000000000000000047
:403980000000000000000000000000000000000000000000000000000000000000000000000000000000000000000000000000000000000000000000000000000000007E89
:4039C00000007E00007E00007E00007E00007E0000000000000000000000000000000000000000000000000000000000007000003800003800001C00001C00000E00000E1D
:403A000000000700000700800300800300C00100C00100E00000E000007000007000003800003C00001C00000E00000E00000700000700800300800300C00100C00100E02E
:403A40000000E000007000007000003800003800001C00001C00000E0000000000000000000000000000000000007E0080FF01C0FF03E0C307F0810FF0000F78001E7800D9
:403A80001E78001E38001C3C003C3C003C3C003C3C003C3C003C3C003C3C003C3C003C3C003C3C003C38001C78001E78001E78001EF0000FF0810FE0C307C0FF0380FF01CD
:403AC000007E00000000000000000000000000000000000000000000000000000000000000006000007C00807F00F87F00F87B001878000078000078000078000078000013
:403B00007800007800007800007800007800007800007800007800007800007800007800007800007800007800007800007800F8FF7FF8FF7FF8FF7F0000000000000000A3
:403B400000000000000000000000000000000000000000000000000000803F00F0FF00F0FF0170E00310C00300800700800700800700800700800700800700C00300C003D1
:403B800000E00100F000007800003C00001E00000F00800700800300C00300E00100F00000F00000F80000F8FF07F8FF07F8FF0700000000000000000000000000000000D3
:403BC0000000000000000000000000000000000000807F00E0FF03E0FF07E0C00700800F00000F00000F00000F00000F00800700800700E00300FF0000FF0000FF0300E0BB
:403C00000700800F00000F00001E00001E00001E00001E00001E00001E00000F00800FE0C007E0FF03E0FF01807F0000000000000000000000000000000000000000000025
:403C400000000000000000000000C00300E00300F00300F00300F80300FC0300DC0300CE0300CF0300C70380C303C0C303C0C103E0C003F0C00370C00338C0033CC003FCA3
:403C8000FF3FFCFF3FFCFF3F00C00300C00300C00300C00300C00300C00300C00300C00300000000000000000000000000000000000000000000000000000000000000003A
:403CC00000C0FF07C0FF07C0FF07C00100C00100C00100C00100C00100C00100C00100C01F00C07F00C0FF0100F00300C00700800700800700000F00000F00000F00000F49
:403D000000000F00000F00800F00800700C00760E003E0FF01E0FF00803F0000000000000000000000000000000000000000000000000000000000000000F80300FE0F00BF
:403D4000FF0F800F0EC00300E00100E00100F00000F00000F0000078000078F80178FE0378FF0FF8830FF8011FF8001EF8003EF8003C78003C78003CF0003CF0003CF00089
:403D80001CE0011EE0011FC0870F80FF0700FF0300FC00000000000000000000000000000000000000000000000000000000000000F0FF1FF0FF1FF0FF1FF0FF1F00000EC8
:403DC00000000E00000700800700800300C00300C00100E00100E00000F000007000007800003800003C00001C00001E00000E00000F00000F00800700800700800700C058
:403E00000300C00300C0030000000000000000000000000000000000000000000000000000000000000000000000FE0180FF07C0FF0FE0830FF0011FF0001EF0001EF00018
:403E40001EF0011EF0010FE08307C0CF0380FF0100FF0080FF01C0FB07E0E10FF0C01FF0001F78003E78003E78003C78003C78003CF8003CF0011EF0830FE0FF0780FF03F5
:403E800000FE00000000000000000000000000000000000000000000000000000000000000007E0080FF01C0FF07E0C307F0010FF0000F70001E78001E78001E78003C78B1
:403EC000003C78003EF8003EF0003EF0013FE0833FC0FF3D80FF3C003F3C00003C00001E00001E00001E00000F00000F008007E0E003E0FF01E0FF00803F000000000000EC
:403F000000000000000000000000000000000000000000000000000000000000000000000000000000000000000000000000000000007E00007E00007E00007E00007E000B
:403F4000007E00000000000000000000000000000000000000000000000000000000007E00007E00007E00007E00007E00007E0000000000000000000000000000000000CF
:403F80000000000000000000000000000000000000000000000000000000000000000000000000000000000000007E00007E00007E00007E00007E00007E0000000000000D
:403FC00000000000000000000000000000000000000000000000007E00007E00007E00007E00007E00007E00007800007800003800003C00001E0000060000000000000045
:4040000000000000000000000000000000000000000000000000000000000000000000000000002000003800003E00801F00E00700F00100FC00003F00C00F00F00300FC7A
:404040000000F00300C00F00003F0000FC0000F00100E00700801F00003E000038000020000000000000000000000000000000000000000000000000000000000000000036
:4040800000000000000000000000000000000000000000000000000000000000000000000000000000000000FCFF3FFCFF3FFCFF3F000000000000000000000000FCFF3F18
:4040C000FCFF3FFCFF3F000000000000000000000000000000000000000000000000000000000000000000000000000000000000000000000000000000000000000000004C
:4041000000000000000000000000000000000000000400001C00007C0000F80100E00700800F00003F0000FC0000F00300C00F00003F00C00F00F00300FC00003F00800FAC
:4041400000E00700F801007C00001C0000040000000000000000000000000000000000000000000000000000000000000000000000C0FF00F8FF03F8FF0F38C00F38001FA6
:4041800038001E38001E00001E00001E00000F00800700C00300F00100F800003C00001E00001E00000F00000F00000F00000F00000000000000000000000000000F000012
:4041C0000F00000F00000F0000000000000000000000000000000000000000000000000000000000000000000000FC0100FF03C08707E0010EF0000E70001C38E01F38F06D
:404200001F1C381E1C1C1C1C0E1C0E0E1C0E061C0E071C0E071E0E071E0E071F0E071F0E871F0E871D1ECE1D1CFE1C1C7CFC3838FC380000700000E00000C0030380FF0377
:4042400000FE00000000000000000000000000000000000000000000000000000000000000000000000000000000000000003C00007E00007E00007E0000F70000F700801C
:40428000E70180E30180E301C0C303C0C103E08107E08107E08007F0000FF0000FF8FF1FF8FF1FF8FF1F3C003C3C003C3E007C1E00781E00780F00F80000000000000000F0
:4042C00000000000000000000000000000000000000000000000000000000000000000000000000000F0FF01F0FF07F0FF0FF0801FF0001EF0001EF0001EF0001EF0000F14
:40430000F0C007F0FF03F0FF00F0FF03F0C00FF0001FF0001EF0003CF0003CF0003CF0003CF0003EF0001FF0FF1FF0FF07F0FF010000000000000000000000000000000036
:40434000000000000000000000000000000000000000000000000000000000000000F80F00FE7F80FF7FC00F78E00340F00100F800007800007800003C00003C00003C00C4
:40438000003C00003C00003C00003C0000780000780000F80000F00100E00300C01F7080FF7F00FE7F00F80F00000000000000000000000000000000000000000000000080
:4043C000000000000000000000000000000000000000000000F87F00F8FF03F8FF0778C00F78001F78003E78003C78003C780078780078780078780078780078780078783A
:40440000007878007878003878003C78003C78001E78001F78E00FF8FF07F8FF01F87F000000000000000000000000000000000000000000000000000000000000000000FB
:4044400000000000000000000000000000F0FF1FF0FF1FF0FF1FF00000F00000F00000F00000F00000F00000F00000F00000F0FF07F0FF07F0FF07F00000F00000F00000E0
:40448000F00000F00000F00000F00000F00000F0FF3FF0FF3FF0FF3F00000000000000000000000000000000000000000000000000000000000000000000000000000000C2
:4044C0000000000000E0FF7FE0FF7FE0FF7FE00100E00100E00100E00100E00100E00100E00100E00100E0FF1FE0FF1FE0FF1FE00100E00100E00100E00100E00100E0015A
:4045000000E00100E00100E00100E00100E0010000000000000000000000000000000000000000000000000000000000000000000000000000000000000000000000F80F0F
:4045400000FE7F80FF7FC00F78E00340F00100F800007800007800003C00003C00003C00003CC07F3CC07F3CC07F3C0078780078780078F80078F00178E00378C01F7880B9
:40458000FF7F00FE7F00F80F00000000000000000000000000000000000000000000000000000000000000000000000000000000000000000078001E78001E78001E7800BF
:4045C0001E78001E78001E78001E78001E78001E78001E78001EF8FF1FF8FF1FF8FF1F78001E78001E78001E78001E78001E78001E78001E78001E78001E78001E78001ECF
:40460000000000000000000000000000000000000000000000000000000000000000000000000000000000000000000000F8FF1FF8FF1FF8FF1F003C00003C00003C000084
:404640003C00003C00003C00003C00003C00003C00003C00003C00003C00003C00003C00003C00003C00003C00003C00003C00F8FF1FF8FF1FF8FF1F000000000000000038
:4046800000000000000000000000000000000000000000000000000000000000000000000000000000E0FF03E0FF03E0FF0300C00300C00300C00300C00300C00300C003C2
:4046C00000C00300C00300C00300C00300C00300C00300C00300C00300C00300C00300E00300E00118F001F8FF00F87F00E01F0000000000000000000000000000000000E2
:40470000000000000000000000000000000000000000000000000000000000000078801F78800F78C00778E00378E00178F00078F800787C00783C00781E00780F0078074C
:4047400000F80F00781F00783E00783C0078780078F80078F00178E00378C00778800F78001F78003F78007E00000000000000000000000000000000000000000000000083
:40478000000000000000000000000000000000000000000000F00000F00000F00000F00000F00000F00000F00000F00000F00000F00000F00000F00000F00000F00000F0E9
:4047C0000000F00000F00000F00000F00000F00000F00000F00000F0FF1FF0FF1FF0FF1F0000000000000000000000000000000000000000000000000000000000000000FF
:40480000000000000000000000000000007C003E7C003EFC003EFC003FFC003FDC013BDC813BDC813B9C83399CC3399CC3391CC7381CE7381CE7381C6E381C7E381C7E388D
:404840001C3C381C3C381C3C381C00381C00381C00381C00381C003800000000000000000000000000000000000000000000000000000000000000000000000000000000E4
:40488000000000000078001C78001CF8001CF8011CF8011CF8031CF8071CB8071CB80F1C381F1C381F1C383E1C383C1C387C1C38F81C38F01C38F01D38E01F38E01F38C08F
:4048C0001F38801F38801F38001F38001E38001E00000000000000000000000000000000000000000000000000000000000000000000000000000000000000000000FF00E9
:40490000C0FF03E0FF07F0810FF8001F78001E3C003C3C003C1E00781E00781E00781E00781E00781E00781E00781E00781E00783C003C3C003C78001EF8001FF0810FE06F
:40494000FF07C0FF0300FF00000000000000000000000000000000000000000000000000000000000000000000000000000000000000000000F0FF01F0FF07F0FF1FF0008C
:404980001FF0003EF0003CF0003CF0003CF0003CF0003CF0001EF0001FF0C00FF0FF07F0FF03F07F00F00000F00000F00000F00000F00000F00000F00000F00000F000002B
:4049C00000000000000000000000000000000000000000000000000000000000000000000000000000000000000000000000FF00C0FF03E0FF07F0810FF8001F78001E3CA7
:404A0000003C3C003C1E00781E00781E00781E00781E00781E00781E00781E00781E00783C003C3C003C78001EF8001FF0810FE0FF07C0FF0300FF0300C00700801F00004F
:404A4000FF00007E000078000020000000000000000000000000000000000000000000000000000000F0FF01F0FF07F0FF0FF0800FF0001FF0001EF0001EF0001EF0001E77
:404A8000F0000FF0800FF0E007F0FF03F0FF00F0FF00F0F001F0F001F0E003F0C007F0800FF0800FF0001FF0003EF0007CF0007C0000000000000000000000000000000072
:404AC000000000000000000000000000000000000000000000000000000000000000FF01C0FF0FE0FF0FF0010F780000780000780000780000F80000F00300F01F00C0FF61
:404B00000000FF0700FC0F00E01F00003F00003E00003C00003C00003C18001EF8801FF8FF0FF8FF0380FF00000000000000000000000000000000000000000000000000E8
:404B4000000000000000000000000000000000000000000000FFFFFFFFFFFFFFFFFF003C00003C00003C00003C00003C00003C00003C00003C00003C00003C00003C0000AA
:404B80003C00003C00003C00003C00003C00003C00003C00003C00003C00003C00003C00000000000000000000000000000000000000000000000000000000000000000061
:404BC0000000000000000000000000000078003C78003C78003C78003C78003C78003C78003C78003C78003C78003C78003C78003C78003C78003C78003C78003C78003CC1
:404C000078003C78003CF0001EF0001FE0830FE0FF0F80FF0300FE00000000000000000000000000000000000000000000000000000000000000000000000000000000000F
:404C400000000000001F00F01E00781E00783E007C3C003C7C003C78001E78001EF8001EF0000FF0010FE08107E08107E08307C0C303C0C70380C70180E70180EF0100EF75
:404C80000000FF00007E00007E00007E00003C000000000000000000000000000000000000000000000000000000000000000000000000000000000000000000000700E058
:404CC0000F00E00F00E00E00700E00700E3C700E3C700E7C701E7E701E7E381C7E381CFE381CE7381CE7383CE7383CE71C38E31DB8C31DB8C31DB8C31DB8C11FF8810FF840
:404D0000810FF0810FF0800F0000000000000000000000000000000000000000000000000000000000000000000000000000000000000000003E00787C003CF8001CF00072
:404D40000EF0010FE08307C08703C0C70180EF0100FF00007E00003E00007C0000FE0000FF0080F70180E303C0C307E0C107F0800F70001F78001E3C003E1E007C0F00F876
:404D80000000000000000000000000000000000000000000000000000000000000000000000000000000000000000000003E00F03C0078780038F8003CF0001CE0011EE042
:404DC000030FC00707808707808F0300DF0300FE0100FE0000FC000078000078000078000078000078000078000078000078000078000078000078000000000000000000B0
:404E000000000000000000000000000000000000000000000000000000000000000000000000000000F8FF3FF8FF3FF8FF3F00003E00001F00000F00800700C00300E00139
:404E400000F00100F800007800003C00001E00001F00800F00800700C00300E00100F00000F800007C0000FCFF3FFCFF3FFCFF3F000000000000000000000000000000008C
:404E8000000000000000000000000000FE1F00FE1F00FE1F000E00000E00000E00000E00000E00000E00000E00000E00000E00000E00000E00000E00000E00000E00000EC9
:404EC00000000E00000E00000E00000E00000E00000E00000E00000E00000E00000E00000E00000E00000E00000E00000E00000E0000FE1F00FE1F00FE1F0000000000007B
:404F00000000000E00001C00001C0000380000380000700000700000E00000E00000C00100C00100800300800300000700000700000E00000E00001C00003C0000380000D9
:404F4000700000700000E00000E00000C00100C00100800300800300000700000700000E00000E00001C00001C000038000038000070000000000000000000F87F00F87FD9
:404F800000F87F00007000007000007000007000007000007000007000007000007000007000007000007000007000007000007000007000007000007000007000007000BA
:404FC000007000007000007000007000007000007000007000007000007000007000007000F87F00F87F00F87F00000000000000000000000000000000000800000800006C
:405000001C00001C00003C00003E00003E0000770000770000E70080E30080C301C0C101C0C103C08003E08007E0000770000770000E38000E38001C38001C1C0038000036
:405040000000000000000000000000000000000000000000000000000000000000000000000000000000000000000000000000000000000000000000000000000000000030
:4050800000000000000000000000000000000000000000000000000000000000000000000000000000000000000000000000000000000000000000000000000000000000F0
:4050C0000000000000000000FFFFFFFFFFFFFFFFFF000000000000000000000000000000000F00001E000038000070000000000000000000000000000000000000000000E4
:40510000000000000000000000000000000000000000000000000000000000000000000000000000000000000000000000000000000000000000000000000000000000006F
:4051400000000000000000000000000000000000000000000000000000000000000000000000000000000000000000000000000000000000000000000000FF01E0FF03E06D
:40518000FF07E0800F20000F00000F00000F00000F00FE0F80FF0FE0FF0FF0030FF0000F78000F78000F78000F78800FF8E11FF0FFFEE07FFE801F7800000000000000009F
:4051C0000000000000000000000000000000000000000078000078000078000078000078000078000078000078000078000078000078F80078FE0378FF0778870FF8010F82
:40520000F8000F78001E78001E78001E78001E78001E78001E78001E78001E78000F78000FF8800FF8C307F8FF0378FF01387C00000000000000000000000000000000003A
:40524000000000000000000000000000000000000000000000000000000000000000000000000000000000000000FC0700FF1FC0FF1FE0071CE00300F00100F000007800F0
:4052800000780000780000780000780000780000780000F00000F00100F00300E00F1CC0FF1F00FF1F00FC0700000000000000000000000000000000000000000000000040
:4052C00000000000001E00001E00001E00001E00001E00001E00001E00001E00001E00001E003F1EC0FF1EE0FF1FF0C11FF0001F78001E78001E3C001E3C001E3C001E3CF5
:40530000001E3C001E3C001E3C001E3C001E78001F78801FF0E01FF0FF1EE07F1E801F1E000000000000000000000000000000000000000000000000000000000000000003
:405340000000000000000000000000000000000000000000000000000000FC0080FF03C0FF07E0830FE0010FF0000EF0001E78001E78001EF8FF1FF8FF1FF8FF1F78000095
:40538000780000F00000F00000F00100E0071CC0FF1F80FF1F00FC0300000000000000000000000000000000000000000000000000000000C07F00F0FF00FCFF007CC000C1
:4053C0003E00001E00001E00001E00001E00001E00F8FF7FF8FF7FF8FF7F001E00001E00001E00001E00001E00001E00001E00001E00001E00001E00001E00001E00001EF1
:4054000000001E00001E00001E00001E00001E00000000000000000000000000000000000000000000000000000000000000000000000000000000000000000000000000D6
:40544000000000000000000000003F1EC0FF1EE0FF1FF0C11FF0001F78001E78001E3C001E3C001E3C001E3C001E3C001E3C001E3C001E3C001E78001FF8801FF0E11EF00C
:40548000FF1EE07F1E801F1E00001E00001E00000F00000F70C007F0FF03F0FF01807F00000000F00000F00000F00000F00000F00000F00000F00000F00000F00000F000C3
:4054C00000F0E007F0F80FF0FC1FF00E1EF0073EF0033CF0013CF0003CF0003CF0003CF0003CF0003CF0003CF0003CF0003CF0003CF0003CF0003CF0003CF0003CF0003CBE
:40550000000000000000000000000000000000000000000000000000000000007C00007C00007C00007C00007C00000000000000000000000000000000F87F00F87F00F819
:405540007F0000780000780000780000780000780000780000780000780000780000780000780000780000780000780000780000780000780000780000000000000000003C
:405580000000000000000000000000000000000000000000F00100F00100F00100F00100F001000000000000000000000000000000F0FF01F0FF01F0FF0100E00100E001A4
:4055C00000E00100E00100E00100E00100E00100E00100E00100E00100E00100E00100E00100E00100E00100E00100E00100E00100E00100E00100E00100F00018F800F800
:405600007F00F83F00E00F00000000F00000F00000F00000F00000F00000F00000F00000F00000F00000F00000F0801FF0800FF0C007F0E003F0F001F0F801F0F800F07CAF
:4056400000F03E00F01F00F01F00F03E00F07C00F0F800F0F001F0E003F0C007F0800FF0801FF0003FF0007E00000000000000000000000000000000000000000000000046
:40568000000000F0FF00F0FF00F0FF0000F00000F00000F00000F00000F00000F00000F00000F00000F00000F00000F00000F00000F00000F00000F00000F00000F000002D
:4056C000F00000F00000F00000F00000F00000F00000F00000F00000F00000F00000F00000000000000000000000000000000000000000000000000000000000000000005A
:40570000000000000000000000000000000000000000000000000000001C0F0E9C1F1FDC9F3FFCF8397CF8383C78383C78381C38381C38381C38381C38381C38381C3838A3
:405740001C38381C38381C38381C38381C38381C38381C38381C383800000000000000000000000000000000000000000000000000000000000000000000000000000000C9
:405780000000000000000000000000000000000000F0E007F0F80FF0FC1FF00E1EF0073EF0033CF0013CF0003CF0003CF0003CF0003CF0003CF0003CF0003CF0003CF00013
:4057C0003CF0003CF0003CF0003CF0003CF0003C00000000000000000000000000000000000000000000000000000000000000000000000000000000000000000000000091
:4058000000000000000000000000FF00C0FF03E0FF07F0810FF8001F78001E78001E3C003C3C003C3C003C3C003C3C003C3C003C3C003C78001E78001EF8001FF0810FE013
:40584000FF07C0FF0300FF00000000000000000000000000000000000000000000000000000000000000000000000000000000000000000000000000000000000000000061
:4058800000F0F001F0FC07F0FE0FF00F1FF0031EF0011EF0003CF0003CF0003CF0003CF0003CF0003CF0003CF0003CF0001EF0001EF0011FF0870FF0FF07F0FE03F0F800F8
:4058C000F00000F00000F00000F00000F00000F00000F00000F00000000000000000000000000000000000000000000000000000000000000000000000003F1CC0FF1EE010
:40590000FF1FF0C11FF0001F78001E78001E3C001E3C001E3C001E3C001E3C001E3C001E3C001E3C001E78001F78801FF0E01EF07F1EE03F1E801F1E00001E00001E00000F
:405940001E00001E00001E00001E00001E00001E000000000000000000000000000000000000000000000000000000000000000000C0833FC0E33FC0F33FC07B38C01F3893
:40598000C00F38C00738C00300C00300C00300C00300C00300C00300C00300C00300C00300C00300C00300C00300C00300C003000000000000000000000000000000000037
:4059C000000000000000000000000000000000000000000000000000000000000000000000000000000000000000FE03C0FF0FE0FF0FF0030EF00000F00000F00000F00326
:405A000000E01F00C0FF0000FF0300F80F00C00F00001F00001E00001E08001F78800FF8FF07F8FF03C0FF0000000000000000000000000000000000000000000000000090
:405A4000000000000000000000000000000000000000000000000F00000F00000F00000F00F8FF3FF8FF3FF8FF3F000F00000F00000F00000F00000F00000F00000F0000DF
:405A80000F00000F00000F00000F00000F00000F00001F00003E0000FE3F00FC3F00F03F000000000000000000000000000000000000000000000000000000000000000088
:405AC0000000000000000000000000000000000000000000000000000078000F78000F78000F78000F78000F78000F78000F78000F78000F78000F78000F78000F78000FCB
:405B000078000F78800F78C00F78E00FF8700FF07F0FE01F0FC00F0F0000000000000000000000000000000000000000000000000000000000000000000000000000000048
:405B400000000000000000000000000000000000001E007C3C003C3C003C7C003E78001EF8001EF0000FF0000FE08107E08107E08307C0C303C0C30380C70180E70100EF52
:405B80000000FF0000FF00007E00007E00003C00000000000000000000000000000000000000000000000000000000000000000000000000000000000000000000000000AF
:405BC0000000000000000000000F00E00F00E00F3C600E7C700E7C701E7E701E7E701E66301CE6381CE7381CE7383CC3383CC319B8C31DB8C31DB8811DF8811FF8810FF8BF
:405C0000800FF0800FF0000F000000000000000000000000000000000000000000000000000000000000000000000000000000000000000000000000000000000000000057
:405C4000007C001EF8000EF00107E08107E08303C0C70180EF0180EF00007F00007E00003C00007E0000FF0080F70180F301C0E303E0C107E08007F0800F78001F3C003E70
:405C80000000000000000000000000000000000000000000000000000000000000000000000000000000000000000000000000000000000000000000003E00783C00387C3E
:405CC000003C78001C78001EF8000EF0000FF0010FE08107E08307C0C303C0C70380E70180E70100EF0000FF00007F00007E00007E00003C00003C00001C00001E00000E5E
:405D000000000F00800700FC0300FC0100FC0000000000000000000000000000000000000000000000000000000000000000000000F8FF3FF8FF3FF8FF3F00003E00001FD6
:405D400000800F00C00700E00300F00100F800007C00003E00001F00800F00C00700E00300F00100F80000F8FF3FF8FF3FF8FF3F0000000000000000000000000000000064
:405D8000000000000000000000000000C00F00F00F00F80F007C00003C00003C00003C00003C00003C00007C00007800007800007800007800007800007C00003E00E01FD9
:405DC00000E00700E01F00003E00003C00007800007800007800007800007800007C00003C00003C00003C00003C00003C00007C0000F80F00F00F00C00F000000000000F2
:405E00000000000038000038000038000038000038000038000038000038000038000038000038000038000038000038000038000038000038000038000038000038000002
:405E40003800003800003800003800003800003800003800003800003800003800003800003800003800003800003800003800003800000000000000000000F00300F00F78
:405E800000F01F00003E00003C00003C00003C00003C00003C00003E00001E00001E00001E00001E00001E00003E00007C0000F80700E00700F807007C00003E00001E001E
:405EC000001E00001E00001E00001E00003E00003C00003C00003C00003C00003C00003E00F01F00F00F00F003000000000000000000000000000000000000000000000081
:405F00000000000000000000000000000000000000000000000000000000000000000000000000000000F00100F80770FC0F701C3F700EFC380EF03F0EE01F00800F0000A0
:405F400000000000000000000000000000000000000000000000000000000000000000000000000000000000000000000000000000000000000000000000000000E0FF073B
:405F800020000420000420000420000420000420000420000420000420000420000420000420000420000420000420000420000420000420000420000420000420000420CD
:405FC0000004200004E0FF0700000000000000000000000000000000000000000000000000000000000000000000000000000000000000000000F80F00FE7F80FF7FC00F42
:4060000078E00340F00100F800007800007800003C00003C00003C00003C00003C00003C00003C0000780000780000F80000F00100E00300C01F7080FF7F00FE7F00F80FBB
:4060400000600000300000F00000C00100800300800300F80100F80000000000000000000000000080830380830380830300000000000000000000000078000F78000F7850
:40608000000F78000F78000F78000F78000F78000F78000F78000F78000F78000F78000F78000F78800F78C00F78E00FF8700FF07F0FE01F0FC00F0F00000000000000006E
:4060C0000000000000000000000000000000000000000000E00100F000007000003800001C00000E0000000000000000000000000000FC0080FF03C0FF07E0830FE0010F57
:40610000F0000EF0001E78001E78001EF8FF1FF8FF1FF8FF1F780000780000F00000F00000F00100E0071CC0FF1F80FF1F00FC0300000000000000000000000000000000A6
:406140000000000000000000000000007E00007E0000FF0080E701C0C303E0000700000000000000000000000000FF01E0FF03E0FF07E0800F20000F00000F00000F0000CB
:406180000F00FE0F80FF0FE0FF0FF0030FF0000F78000F78000F78000F78800FF8E11FF0FFFEE07FFE801F7800000000000000000000000000000000000000000000000051
:4061C00000000000000000000000000000070700070700070700000000000000000000000000FF01E0FF03E0FF07E0800F20000F00000F00000F00000F00FE0F80FF0FE067
:40620000FF0FF0030FF0000F78000F78000F78000F78800FF8E11FF0FFFEE07FFE801F78000000000000000000000000000000000000000000000000000000800700000FC4
:4062400000000E00001C0000380000700000000000000000000000000000FF01E0FF03E0FF07E0800F20000F00000F00000F00000F00FE0F80FF0FE0FF0FF0030FF0000F2F
:4062800078000F78000F78000F78800FF8E11FF0FFFEE07FFE801F78000000000000000000000000000000000000000000000000001C0000220000410000410000410000E8
:4062C0002200001C0000000000000000000000000000FF01E0FF03E0FF07E0800F20000F00000F00000F00000F00FE0F80FF0FE0FF0FF0030FF0000F78000F78000F7800BD
:406300000F78800FF8E11FF0FFFEE07FFE801F78000000000000000000000000000000000000000000000000000000000000000000000000000000000000000000000000EE
:4063400000000000000000000000FC0700FF1FC0FF1FE0071CE00300F00100F00000780000780000780000780000780000780000780000F00000F00100F00300E00F1CC070
:40638000FF1F00FF1F00FC07001800000C00003C0000700000E00000E000007E00003E0000000000FC0000FC0000FE0100CF03808707C0010E0000000000000000000000AC
:4063C0000000FC0080FF03C0FF07E0830FE0010FF0000EF0001E78001E78001EF8FF1FF8FF1FF8FF1F780000780000F00000F00000F00100E0071CC0FF1F80FF1F00FC033E
:40640000000000000000000000000000000000000000000000000000000000000000000000000000000E0E000E0E000E0E00000000000000000000000000FC0080FF03C0CA
:40644000FF07E0830FE0010FF0000EF0001E78001E78001EF8FF1FF8FF1FF8FF1F780000780000F00000F00000F00100E0071CC0FF1F80FF1F00FC030000000000000000FB
:4064800000000000000000000000000000000000000000800700000F00000E00001C0000380000700000000000000000000000000000FC0080FF03C0FF07E0830FE0010FCE
:4064C000F0000EF0001E78001E78001EF8FF1FF8FF1FF8FF1F780000780000F00000F00000F00100E0071CC0FF1F80FF1F00FC0300000000000000000000000000000000E3
:406500000000000000000000000000000000000000000000000707000707000707000000000000000000000000F87F00F87F00F87F00007800007800007800007800007874
:406540000000780000780000780000780000780000780000780000780000780000780000780000780000780000000000000000000000000000000000000000000000000003
:4065800000000000FC0000FC0000FE0100CF03808707C0010E000000000000000000000000F87F00F87F00F87F000078000078000078000078000078000078000078000088
:4065C0007800007800007800007800007800007800007800007800007800007800007800000000000000000000000000000000000000000000000000000000800700000FDD
:4066000000000E00001C00003800007000000000000000000000000000F87F00F87F00F87F0000780000780000780000780000780000780000780000780000780000780073
:40664000007800007800007800007800007800007800007800007800000000000000000000000000000000000000000000000000C00107C00107C001070000000000000002
:406680000000000000003C00007E00007E00007E0000F70000F70080E70180E30180E301C0C303C0C103E08107E08107E08007F0000FF0000FF8FF1FF8FF1FF8FF1F3C0049
:4066C0003C3C003C3E007C1E00781E00780F00F8000000000000000000000000000000000000000000000000003C0000420000810000810000810000C300007E00003C007B
:40670000007E00007E00007E0000F70000F70080E70180E30180E301C0C303C0C103E08107E08107E08007F0000FF0000FF8FF1FF8FF1FF8FF1F3C003C3C003C3E007C1E78
:4067400000781E00780F00F000000000000000000000000000000000000000000000000000C00300E001007000003800000000000000000000F0FF1FF0FF1FF0FF1FF000A6
:4067800000F00000F00000F00000F00000F00000F00000F00000F0FF07F0FF07F0FF07F00000F00000F00000F00000F00000F00000F00000F00000F0FF3FF0FF3FF0FF3F5D
:4067C000000000000000000000000000000000000000000000000000000000000000000000000000000000000000000000000000000000000000000000E0870FF8CF3FF825
:40680000FF3F08FE78007C70003CF0003CF0003CF0C0FFFFF0FFFFF8FFFF7C3C003E3C001E3C001E3C001E7C001E7C003EFEC0FCF7FFF8E3FFF0C11F0000000000000000D8
:406840000000000000000000000000000000000000000000000000000000000000000000000000000000F83F00FC3F00FC3F00FE0000FE0000FF0000F70000F70080F3000F
:4068800080F300C0F300C0F11FE0F11FE0F01FE0F00070F00070F000F8FF00F8FF00FCFF001CF0001CF0000EF07F0EF07F0FF07F00000000000000000000000000000000FA
:4068C0000000000000000000000000007E00007E0000FF0080E701C0C303E0000700000000000000000000000000FF00C0FF03E0FF07F0810FF8001F78001E78001E3C0022
:406900003C3C003C3C003C3C003C3C003C3C003C3C003C78001E78001EF8001FF0810FE0FF07C0FF0300FF00000000000000000000000000000000000000000000000000E1
:4069400000000000000000000000000080830380830380830300000000000000000000000000FF00C0FF03E0FF07F0810FF8001F78001E78001E3C003C3C003C3C003C3CF7
:40698000003C3C003C3C003C3C003C78001E78001EF8001FF0810FE0FF07C0FF0300FF00000000000000000000000000000000000000000000000000000000C0030080077F
:4069C00000000700000E00001C0000380000000000000000000000000000FF00C0FF03E0FF07F0810FF8001F78001E78001E3C003C3C003C3C003C3C003C3C003C3C003CF4
:406A00003C003C78001E78001EF8001FF0810FE0FF07C0FF0300FF00000000000000000000000000000000000000000000000000000000007E00007E0000FF0080E701C051
:406A4000C303E0000700000000000000000000000078000F78000F78000F78000F78000F78000F78000F78000F78000F78000F78000F78000F78000F78000F78800F78C0C8
:406A80000F78E00FF8700FF07F0FE01F0FC00F0F000000000000000000000000000000000000000000000000000000C00300800700000700000E00001C00003800000000CC
:406AC00000000000000000000078000F78000F78000F78000F78000F78000F78000F78000F78000F78000F78000F78000F78000F78000F78800F78C00F78E00FF8700FF018
:406B00007F0FE01F0FC00F0F0000000000000000000000000000000000000000000000000000000000000000000000000007070007070007070000000000000000000000B1
:406B4000003E00783C00387C003C78001C78001EF8000EF0000FF0010FE08107E08307C0C303C0C70380E70180E70100EF0000FF00007F00007E00007E00003C00003C0071
:406B8000001C00001E00000E00000F00800700FC0300FC0100FC0000C00107C00107C0010700000000000000000000000000FF00C0FF03E0FF07F0810FF8001F78001E3C97
:406BC000003C3C003C1E00781E00781E00781E00781E00781E00781E00781E00781E00783C003C3C003C78001EF8001FF0810FE0FF07C0FF0300FF000000000000000000D7
:406C00000000000000000000000000000000000080030E80030E80030E00000000000000000000000078003C78003C78003C78003C78003C78003C78003C78003C78003C4D
:406C400078003C78003C78003C78003C78003C78003C78003C78003C78003C78003CF0001EF0001FE0830FE0FF0F80FF0300FE00000000000000000000000000000000000F
:406C80000000000000000000000000000000000000000000000000000000000000000000000000000000000000007F38C0FF1FE0FF0FF0C10FF8001F78801F78C01F3CE0F0
:406CC0003C3C703C3C383C3C3C3C3C1C3C3C0E3C3C073CF8031EF8011EF8001FF0830FF0FF07F8FF031CFF000000000000000000000000000000000000000000000000009F
:406D000000000000000000000000E01F00F01F00F81F003C10003C00001E00001E00001E00001E00001E00001E00001E00C0FF01C0FF01C0FF01001E00001E00001E00003A
:406D40001E00001E00001E00001E00000E00000F00800700C00300E0FF1FE0FF1FE0FF1F00000000000000000000000000000000000000000000000000000000000000003A
:406D80000000000000000000000000000000FF70C0FF3BE0FF1FF0810FF8001F78001F3C803F3CC03F1EC0791EE0781E70781E38781E3C781E1C781E0E781E07789E037889
:406DC000FC033CFC013CF8001EF8001FF0810FF8FF07DCFF030EFF000000000000000000000000000000000000000000000000000000000000000000000000000000000089
:406E000000000000000000000000000000000000000800081C001C3E003E7C001FF8800FF0C107E0E303C0F70180FF00007F00003E00007F0080FF00C0F701E0E303F0C1CD
:406E400007F8800F7C001F3E003E1C001C08000800000000000000000000000000000000000000000000000000000000E00F00F81F00FC1F003C10001E00001E00001E005E
:406E8000001E00001E00001E00E0FF07E0FF07E0FF07001E00001E00001E00001E00001E00001E00001E00001E00001E00001E00001E00001E00001E00001E00001E000004
:406EC0001E00001E00001E00001E00001E00001E00001E00020F00FE0F00FE0700FC010000000000E00100F000007000003800001C00000E000000000000000000000000FD
:406F00000000FF01E0FF03E0FF07E0800F20000F00000F00000F00000F00FE0F80FF0FE0FF0FF0030FF0000F78000F78000F78000F78800FF8E11FF0FFFEE07FFE801F783F
:406F400000000000000000000000000000000000000000000000000000000000E00100F000007000003800001C00000E00000000000000000000000000F87F00F87F00F888
:406F80007F000078000078000078000078000078000078000078000078000078000078000078000078000078000078000078000078000078000078000000000000000000E2
:406FC0000000000000000000000000000000000000000000E00100F000007000003800001C00000E0000000000000000000000000000FF00C0FF03E0FF07F0810FF8001FB0
:4070000078001E78001E3C003C3C003C3C003C3C003C3C003C3C003C3C003C78001E78001EF8001FF0810FE0FF07C0FF0300FF000000000000000000000000000000000072
:40704000000000000000000000000000E00100F000007000003800001C00000E0000000000000000000000000078000F78000F78000F78000F78000F78000F78000F780044
:407080000F78000F78000F78000F78000F78000F78000F78800F78C00F78E00FF8700FF07F0FE01F0FC00F0F00000000000000000000000000000000000000000000000001
:4070C000000000000000000F06803F06C0FF07C0F803C0E001000000000000000000000000F0E007F0F80FF0FC1FF00E1EF0073EF0033CF0013CF0003CF0003CF0003CF09A
:40710000003CF0003CF0003CF0003CF0003CF0003CF0003CF0003CF0003CF0003CF0003C000000000000000000000000000000000000000000000000000F06803F07C0F9C7
:4071400003C0E00100000000000000000078001C78001CF8001CF8011CF8011CF8031CF8071CB8071CB80F1C381F1C381F1C383E1C383C1C387C1C38F81C38F01C38F01D68
:4071800038E01F38E01F38C01F38801F38801F38001F38001E38001E000000000000000000000000000000000000000000000000000000000000000000007F00C0FF01C09A
:4071C000C10300800300800300800300FE0380FF03C08303E08003E08003E08003E0E103C03F0F800F0F0000000000000000000000000000000000000000000000000000E0
:4072000000000000000000000000000000000000000000000000000000000000000000000000000000000000000000000000000000007F00C0FF01E0C103E0800370000791
